:020000040800F2
:10000000606B00200D230008792300087923000885
:1000100079230008792300087923000800000000F4
:10002000000000000000000000000000792300082C
:10003000792300080000000079230008C9030108A3
:100040007923000879230008792300087923000820
:100050007923000879230008792300087923000810
:100060007923000879230008792300087923000800
:1000700079230008792300087923000879230008F0
:1000800079230008792300087923000879230008E0
:1000900079230008792300087923000879230008D0
:1000A00079230008792300087923000879230008C0
:1000B000792300088DF500083569040879230008C4
:1000C00079230008792300087923000879230008A0
:1000D000792300083D090008F9070008E94E0008E7
:1000E0007923000879230008792300087923000880
:1000F0007923000879230008792300087923000870
:1001000079230008792300086D210008792300086D
:100110005D6A040879230008792300087923000820
:10012000792300087923000879230008792300083F
:10013000792300087923000879230008792300082F
:10014000792300087923000879230008792300081F
:10015000792300087923000879230008792300080F
:1001600079230008792300087923000879230008FF
:1001700079230008792300087923000879230008EF
:10018000792300087923000810B5054C237833B98A
:10019000044B13B10448AFF300800123237010BD5A
:1001A000C01300200000000048220508084B10B5CD
:1001B0001BB108490848AFF300800848036803B939
:1001C00010BD074B002BFBD0BDE81040184700BF07
:1001D00000000000C413002048220508BC130020C2
:1001E0000000000080B582B000AF786001214FF4BC
:1001F000003004F047FD0121012004F023FD284BCD
:100200000C221A60264B02221A71254B02225A71C7
:10021000234B00229A71224B0122DA712049214896
:100220000FF06AFE072202211E480FF02DFF072261
:1002300003211C480FF028FF1B4A7B6813601A4BF0
:1002400000229A80184B0022DA80174B00221A8174
:10025000154B00229A81144B0C225A8112491348E3
:1002600001F042FB012240F22551104801F028FC28
:100270000F4B26221A700E4B00225A700C4B002294
:100280009A700B4B0122DA70094845F033FC0121CA
:10029000064801F0E3FB00BF0837BD4680BD00BF44
:1002A000D833002000000240F83300200044004012
:1002B0002438002080B584B000AF0346FB80FB8863
:1002C000FB81064801F0A6FA0548FFF78BFFB7F956
:1002D0000E3018461037BD4680BD00BF00140140E7
:1002E00040420F0090B585B000AF786039602F4B69
:1002F000FB608021786801F047FC2C4BFB601DE01F
:10030000FB68002B03D0FB68013BFB6016E045F067
:10031000DFFB0021002045F0C9FB254A254B144690
:1003200007CB20606160A2601B88A381204845F054
:10033000A9FB4FF0FF30FFF7BDFF34E08021786864
:1003400001F006FC0346002BDAD03B689BB219464D
:10035000786801F0A3FB154BFB601DE0FB68002BE8
:1003600003D0FB68013BFB6016E045F0B1FB0021C8
:10037000002045F09BFB0E4A0E4B144607CB206035
:100380006160A2601B88A381094845F07BFB4FF0A8
:10039000FF30FFF78FFF06E04021786801F0D8FBBF
:1003A0000346002BDAD01437BD4690BD20A10700CC
:1003B000B41D0020F0F8040880B584B000AF0346F7
:1003C000FB710B46BB7113467B71BB79FB737B7969
:1003D000BB73FA79FB7B1344DAB2BB7B1344DBB209
:1003E0004233DBB2DB43DAB21C4B1A7002211C48E9
:1003F0000FF02AFEFF211B48FFF774FFFF21194869
:10040000FFF770FFFB7919461648FFF76BFF0621CF
:100410001448FFF767FF03211248FFF763FF1C2111
:100420001048FFF75FFFFB7B19460E48FFF75AFFA6
:100430001D210C48FFF756FFBB7B19460948FFF703
:1004400051FF064B1B7819460648FFF74BFF0A2061
:100450000FF0D2FF00BF1037BD4680BDF81F00204F
:10046000000802400044004080B584B000AF03465D
:100470003960FB713B681B12FB733B68BB73FA79F5
:10048000BB7B1344DAB2FB7B1344DBB23833DBB201
:10049000DB43DAB21A4B1A7002211A480FF0D4FD6E
:1004A000FF211948FFF71EFFFF211748FFF71AFF2A
:1004B000FB7919461448FFF715FF05211248FFF78D
:1004C00011FF03211048FFF70DFF30210E48FFF701
:1004D00009FFBB7B19460C48FFF704FFFB7B19465D
:1004E0000948FFF7FFFE064B1B7819460648FFF741
:1004F000F9FE0A200FF080FF00BF1037BD4680BD17
:10050000F81F0020000802400044004080B586B07B
:1005100000AFB9607A603B600346FB73BB689B0227
:100520007B617B69364A82FB03125211DB17D31AB7
:100530007B617B69002B02D07B69013B7B617B691E
:100540001B12FB747B69BB747B681B0A7B747B6822
:100550003B74FA7BBB7C1344DAB2FB7C1344DAB203
:100560003B7C1344DAB27B7C1344DBB22833DBB22E
:10057000DB43DAB2234B1A70022123480FF064FDEB
:10058000FF212248FFF7AEFEFF212048FFF7AAFE19
:10059000FB7B19461D48FFF7A5FE07211B48FFF707
:1005A000A1FE03211948FFF79DFE1E211748FFF702
:1005B00099FEBB7C19461548FFF794FEFB7C194653
:1005C0001248FFF78FFE3B7C19461048FFF78AFE62
:1005D0007B7C19460D48FFF785FE0A4B1B781946B0
:1005E0000A48FFF77FFE38680FF006FF0221064831
:1005F0000FF03AFD4FF0FF3318461837BD4680BD67
:10060000B5814E1BF81F0020000802400044004046
:1006100080B584B000AF0346FB7140F2FF33FB604E
:10062000FB681B12FB72FB68BB72FA79BB7A13443E
:10063000DAB2FB7A1344DBB21633DBB2DB43DAB255
:100640001C4B1A7002211C480FF0FEFCFF211B48B6
:10065000FFF748FEFF211948FFF744FEFB791946D2
:100660001648FFF73FFE05211448FFF73BFE032124
:100670001248FFF737FE0E211048FFF733FEBB7A12
:1006800019460E48FFF72EFEFB7A19460B48FFF776
:1006900029FE084B1B7819460848FFF723FEFA206D
:1006A0000FF0AAFE022104480FF0DEFC00BF103755
:1006B000BD4680BDF81F00200008024000440040F5
:1006C00080B588B000AF0023FB6107237B61002366
:1006D000BB615E23FB7440F29F23FB604FF47A738F
:1006E000BB6002213F480FF0AFFCFF213E48FFF7FF
:1006F000F9FDFF213C48FFF7F5FDFE213A48FFF7E1
:10070000F1FDFB7C19463848FFF7ECFD83213648A4
:10071000FFF7E8FD1E213448FFF7E4FD04213248CD
:10072000FFF7E0FD44E0314AFB6952F823301B1229
:10073000FB712E4AFB6952F82330BB712C4AFB69CE
:1007400052F823301B127B71294AFB6952F823307F
:100750003B71FB69DBB20133DBB219462248FFF77C
:10076000C1FDBB7919462048FFF7BCFDFB7919464E
:100770001D48FFF7B7FD3B7919461B48FFF7B2FD4F
:100780007B7919461848FFF7ADFDFB695A1CBB7908
:100790001A44FB791A443B791A447B791344BA69A9
:1007A0001344BB61FB69102B06DCFB690133FB6161
:1007B000FB69112BB7DD00E000BFBB69DAB2FB7C3F
:1007C0001344DBB25D3BDBB2DB43DAB2094B1A7098
:1007D000084B1B7819460448FFF784FD00BF2037FB
:1007E000BD4680BD0008024000440040A023002018
:1007F000E0390020F81F002080B500AF0221174823
:100800000FF022FC40F22771154801F0CFF90346A2
:10081000002B20D0134B1B68134AD35C9BB21946A4
:100820000F4801F03BF90F4B1B6801330D4A136071
:100830000E4B1B685A1C0B4B1B689A420BDC0B4B74
:1008400000221A60074B00221A60002240F2277132
:10085000034801F035F900BF80BD00BF0008024029
:1008600000440040641C0020302B0020A81B002006
:1008700080B582B000AF78600121102004F022FA28
:100880000121022004F0DEF9274BC0221A60264B1A
:1008900002221A71244B02225A71234B00229A71B0
:1008A000214B0122DA71204920480FF025FB072255
:1008B00006211E480FF0E8FB072207211B480FF016
:1008C000E3FB1B4A7B681360194B00229A80184B8C
:1008D0000022DA80164B00221A81154B00229A81E1
:1008E000134B0C225A811249124800F0FDFF0122DD
:1008F00040F225510F4801F0E3F80F4B25221A7002
:100900000D4B00225A700C4B00229A700A4B0122A8
:10091000DA70094845F0EEF80121064801F09EF82A
:1009200000BF0837BD4680BDD83300200004024018
:10093000F8330020001001402438002080B582B038
:1009400000AF40F225518C4801F030F90346002BEE
:1009500000F0DC81884B9B889BB2FB71874B1B6846
:10096000013B0D2B00F21A8101A252F823F000BFC7
:10097000A9090008C1090008F9090008110A0008BE
:10098000590A0008710A0008B10A0008C90A0008DB
:10099000E10A0008F90A0008110B0008290B0008F9
:1009A000410B0008850B0008734B9B889BB21A46CD
:1009B000734B1A60714B1B680133704A1360EDE092
:1009C0006F4B1B68112B0BD16B4B9B889BB21A464C
:1009D0006B4B5A60694B1B683F33684A1360DDE01C
:1009E000654B9B889BB21A46654B5A60634B1B68EC
:1009F0000133624A1360D1E05F4B9B889BB21A4679
:100A00005F4B9A605D4B1B6801335C4A1360C5E025
:100A10005B4B1B68522B07D0594B1B68122B03D022
:100A2000574B1B68132B0BD1534B9B889BB21A4619
:100A3000534BDA60514B1B680133504A1360ADE0F1
:100A40004D4B9B889BB21A464D4BDA604B4B1B6853
:100A50003F334A4A1360A1E0474B9B889BB21A463A
:100A6000474B1A61454B1B680133444A136095E0BC
:100A7000434B1B68132B03D0414B1B68122B0BD12C
:100A80003D4B9B889BB21A463D4B5A613B4B1B68C2
:100A900001333A4A136081E0374B9B889BB21A4678
:100AA000374B5A61354B1B683F33344A136075E04E
:100AB000314B9B889BB21A46314B9A612F4B1B6876
:100AC00001332E4A136069E02B4B9B889BB21A4678
:100AD0002B4BDA61294B1B680133284A13605DE018
:100AE000254B9B889BB21A46254B1A62234B1B68E9
:100AF0000133224A136051E01F4B9B889BB21A4678
:100B00001F4B5A621D4B1B6801331C4A136045E0A2
:100B1000194B9B889BB21A46194B9A62174B1B685C
:100B20000133164A136039E0134B9B889BB21A4677
:100B3000134BDA62114B1B680133104A13602DE02E
:100B40000F4B1B68122B0BD10B4B9B889BB21A4689
:100B50000B4B1A63094B1B683F33084A13601DE0B7
:100B6000054B9B889BB21A46054B1A63034B1B68C7
:100B70000133024A136011E000100140CC1600203E
:100B800024170020634B9B889BB21A46624B5A6322
:100B9000624B1B683F33614A136000BFFA79604BB8
:100BA0001B689A420CD15F4B1B781A465E4B1B6840
:100BB0009A4205D1594B01221A605C4B01221A60FE
:100BC000584AFB791370544B1B68122B57D0122BC9
:100BD00002D8112B4ED083E0132B16D0522B7FD18D
:100BE0004D4B5B681A024C4B9B681343504A136091
:100BF000494BDB681A02484B1B6913434C4A53604C
:100C0000454B5B694A4A93606AE0434B5B681A0252
:100C1000414B9B681343464A13603F4BDB681A0203
:100C20003D4B1B691343424A53603B4B5B691A02BD
:100C3000394B9B6913433E4A9360374BDB691A0279
:100C4000354B1B6A13433A4AD360334B5B6A1A0233
:100C5000314B9B6A1343364A13612F4BDB6A1A02EE
:100C60002D4B1B6B1343324A53612B4B5B6B304A4A
:100C7000936135E0284B5B682D4A536030E0264B8A
:100C80005B681A02244B9B681343294A5360224B2A
:100C9000DB681A02204B1B691343254A93601E4BE5
:100CA0005B691A021C4B9B691343214AD3601A4BA0
:100CB000DB691A02184B1B6A13431D4A1361164B5A
:100CC0005B6A1A02144B9B6A1343194A5361124B15
:100CD000DB6A1A02104B1B6B1343154A936100BF6A
:100CE000134B5A68134B1B689A420FD1104B1A686A
:100CF000114B1B689A4209D0104B1A68104B1B68A5
:100D00009A4203D10B4B1B680E4A136000BF083791
:100D1000BD4680BD0010014024170020CC160020E5
:100D200074000020681C002070000020E0170020E4
:100D3000F81600209C06002018000020081800204B
:100D4000A8060020FC1700200EB480B482B000AFCB
:100D5000786000BF0837BD465DF8047B03B070477C
:100D600080B584B000AF786039601B4BFB60802198
:100D70001A4800F009FF184BFB60194B00221A605B
:100D800005E0FB68002B0AD0FB68013BFB6080217B
:100D9000124800F0DDFE0346002BF2D000E000BF59
:100DA0003B689BB219460D4800F078FE0A4BFB6089
:100DB00005E0FB68002B0AD0FB68013BFB6040218B
:100DC000064800F0C5FE0346002BF2D000E000BF4D
:100DD00000BF1037BD4680BD20A1070000100140B4
:100DE000E017002080B500AF0121022003F02AFFA8
:100DF00001214FF4001003F045FF204B4FF44072E7
:100E00001A601E4B02221A711C4B01229A711B4B55
:100E100002225A71194B0122DA71184918480FF051
:100E20006BF80422082116480FF02EF9042209213C
:100E300013480FF029F9134844F0EAFA124B002244
:100E40009A80114B114A1A600F4B4BF6FF72DA80F1
:100E50000D4B00221A810C4B4FF480625A810A4BD1
:100E60004FF480429A810121064844F0CDFB0649A7
:100E7000044844F007FB00BF80BD00BFD83300200A
:100E80000004024000540040E02C0020A086010035
:100E900080B584B000AF03460A46FB711346BB71B0
:100EA00000237B814FF44053FB6001213E4844F016
:100EB000CBFB4FF44053FB600CE0FB68002B03D0EE
:100EC000FB68013BFB6005E04FF0FF3000F074F879
:100ED000034665E03549344844F0A4FC0346002B42
:100EE000EBD0FB795B00DBB2002219462E4844F0C0
:100EF000EBFB4FF44053FB600CE0FB68002B03D08E
:100F0000FB68013BFB6005E06FF0010000F054F866
:100F1000034645E02649244844F084FC0346002B60
:100F2000EBD0214B1B8B4FF44053FB600CE0FB6874
:100F3000002B03D0FB68013BFB6005E06FF0020073
:100F400000F03AF803462BE01A49174844F06AFCCF
:100F50000346002BEBD0BB791946134844F014FC30
:100F60004FF44053FB600CE0FB68002B03D0FB68A0
:100F7000013BFB6005E06FF0030000F01DF8034645
:100F80000EE00C49084844F04DFC0346002BEBD022
:100F90000121054844F078FB00237B81B7F90A3032
:100FA00018461037BD4680BD0054004001000010B7
:100FB000020000108000001080B584B000AF03462E
:100FC000FB80FB88FB8101210C4844F05DFB012183
:100FD0000A4844F0B7FB0021084844F0B3FB002165
:100FE000064844F0AFFB054844F012FAFFF7FAFE5A
:100FF000B7F90E3018461037BD4680BD005400408A
:1010000080B584B000AF0346FB710B46BB7113463D
:101010007B71FB791B01FB73BB79002B03D0FB7B3E
:1010200043F00103FB737B79002B03D0FB7B43F080
:101030000403FB73084B1B78002B03D0FB7B43F0AE
:101040000803FB73FB7B19462720FFF721FF00BF36
:101050001037BD4680BD00BF5363002080B582B00D
:1010600000AF03460A46FB711346BB71B979FB79A1
:1010700001221846FFF7C4FF01200FF0BDF9B9792E
:10108000FB7900221846FFF7BBFF00BF0837BD46BB
:1010900080BD00BF80B584B000AF03460A46FB7137
:1010A0001346BB71FB7903F00F03FB73FB791B093C
:1010B000BB73BA79BB7B11461846FFF7CFFFBA79ED
:1010C000FB7B11461846FFF7C9FF00BF1037BD462E
:1010D00080BD00BF80B582B000AF0346FB71FB79D5
:1010E00000211846FFF7D6FF00BF0837BD4680BD78
:1010F00080B582B000AF0346FB71FB790121184631
:10110000FFF7C8FF00BF0837BD4680BD80B582B07D
:1011100000AF0346FB71FB791846FFF7E9FF072094
:101120000FF06AF900BF0837BD4680BD80B483B0B8
:1011300000AF0346FB71064AFB791370054B012291
:101140001A7000BF0C37BD465DF8047B704700BFC6
:10115000516300205363002080B582B000AF034686
:10116000FB710B46BB7113467B71324ABB7913701E
:10117000314B00221A70BB79012B06D92E4B1B78FC
:1011800043F00803DAB22C4B1A707B79002B09D09C
:10119000BB79012B06D1284B1B7843F00403DAB24C
:1011A000254B1A70FFF71EFE2720FFF7BFFF002216
:1011B00001210020FFF724FF4CF250300FF01CF902
:1011C00000210320FFF74AFF41F294100FF014F9B9
:1011D00000210320FFF742FF41F294100FF00CF9B9
:1011E00000210320FFF73AFF96200FF005F90021B8
:1011F0000220FFF733FF104B1B7843F02003DBB2D4
:101200001846FFF767FF0D4B04221A7000F030F804
:1012100000F07AF80A4B02221A70094B1B7843F04F
:101220000403DBB21846FFF755FF00BF0837BD4681
:1012300080BD00BF54630020526300205063002033
:101240005563002080B500AF084B1B7823F00203E4
:10125000DAB2064B1A70054B1B7843F00803DBB279
:101260001846FFF737FF00BF80BD00BF5063002066
:1012700080B500AF084B1B7843F00403DAB2064B8D
:101280001A70054B1B7843F00803DBB21846FFF7D2
:1012900021FF00BF80BD00BF5063002090B587B024
:1012A00000AF03460A46FB711346BB7106200FF0E0
:1012B000A3F8134B07F108040FCB84E80F00114B80
:1012C0001B78BA799A4203D30E4B1B78013BBB7152
:1012D000BB799B0007F11802134453F8103CDAB2B3
:1012E000FB791344DBB25BB263F07F035BB2DBB22A
:1012F0001846FFF7EFFE00BF1C37BD4690BD00BF8C
:1013000000F904085463002080B500AF0120FFF706
:10131000E1FE4FF496600FF06FF800BF80BD00BF94
:1013200080B584B000AF0346FB710B46BB7113461A
:101330007B7100237B814FF44053FB600121854882
:1013400044F082F94FF44053FB600BE0FB68002B44
:1013500003D0FB68013BFB6004E0012000F03CFA95
:101360000346F3E07C497B4844F05CFA0346002BDB
:10137000ECD0FB795B00DBB200221946754844F0E3
:10138000A3F94FF44053FB600BE0FB68002B03D044
:10139000FB68013BFB6004E0022000F01DFA0346FD
:1013A000D4E06E496B4844F03DFA0346002BECD084
:1013B000684B1B8B4FF44053FB600BE0FB68002B2A
:1013C00003D0FB68013BFB6004E0032000F004FA5B
:1013D0000346BBE062495F4844F024FA0346002B11
:1013E000ECD07B791B12DBB219465A4844F0CCF999
:1013F0004FF44053FB600BE0FB68002B03D0FB680D
:10140000013BFB6004E0052000F0E6F903469DE0A7
:101410005349504844F006FA0346002BECD051499A
:101420004C4844F0FFF90346002BE5D07B79194680
:10143000484844F0A9F94FF44053FB600BE0FB68C7
:10144000002B03D0FB68013BFB6004E0052000F0AB
:10145000C3F903467AE042493E4844F0E3F90346C3
:10146000002BECD03F493B4844F0DCF90346002B0D
:10147000E5D00121374844F007F90121354844F00F
:10148000E3F84FF44053FB600BE0FB68002B03D004
:10149000FB68013BFB6004E0052000F09DF903467A
:1014A00054E031492B4844F08DF90346002BECD031
:1014B000FB795B005BB243F001035BB2DBB201225C
:1014C0001946244844F000F94FF44053FB600BE008
:1014D000FB68002B03D0FB68013BFB6004E00120AC
:1014E00000F07AF9034631E020491A4844F06AF9DD
:1014F0000346002BECD00021164844F003F90121EB
:10150000144844F0C1F84FF44053FB600BE0FB6813
:10151000002B03D0FB68013BFB6004E0012000F0DE
:101520005BF9034612E012490A4844F04BF90346BE
:10153000002BECD0074844F037F903461A460D4B10
:101540001A600121034844F0DDF8002318461037E3
:10155000BD4680BD00580040010000100200001090
:1015600080000010040000100100030002000300CE
:1015700040000300D41D002080B582B000AF0122DE
:1015800001215020FFF7CCFE03467B607D4B1B689A
:101590001B023B60022201215020FFF7C1FE794B64
:1015A0001B683A6813433B603B68774A13606420CA
:1015B0000EF048FF032201215020FFF7B1FE714BCE
:1015C0001B681B023B60042201215020FFF7A8FE8C
:1015D0006C4B1B683A6813433B603B686B4A136073
:1015E00064200EF02FFF052201215020FFF798FE06
:1015F000644B1B681B023B60062201215020FFF751
:101600008FFE604B1B683A6813433B603B68604A3F
:10161000136064200EF016FF0B2201215020FFF70B
:101620007FFE584B1B681B023B600C22012150209F
:10163000FFF776FE534B1B683A6813433B603B68E9
:10164000544A136064200EF0FDFE0D22012150204B
:10165000FFF766FE4B4B1B681B023B600E2201210D
:101660005020FFF75DFE474B1B683A6813433B6011
:101670003B68494A136064200EF0E4FE0F2201210A
:101680005020FFF74DFE3F4B1B681B023B601022B2
:1016900001215020FFF744FE3A4B1B683A68134380
:1016A0003B603B683D4A136064200EF0CBFE07228E
:1016B00001215020FFF734FE324B1B681B023B60B8
:1016C000082201215020FFF72BFE2E4B1B683A68A1
:1016D00013433B603B68324A136064200EF0B2FE55
:1016E000092201215020FFF71BFE264B1B681B021D
:1016F0003B600A2201215020FFF712FE214B1B689C
:101700003A6813433B603B68264A136064200EF03E
:1017100099FE112201215020FFF702FE194B1B6890
:101720001B023B60122201215020FFF7F9FD154BEF
:101730001B683A6813433B603B681B4A1360642094
:101740000EF080FE132201215020FFF7E9FD0D4B22
:101750001B681B023B60142201215020FFF7E0FDB3
:10176000084B1B683A6813433B603B680F4A1360A1
:1017700064200EF067FE7B681BB218460837BD4632
:1017800080BD00BFD41D00209419002088190020BE
:1017900084190020901900208C190020981900202D
:1017A000801900207C1900209C190020A01900201D
:1017B00080B500AF152201215020FFF7B1FD044B89
:1017C0001B68044A136064200EF03CFE00BF80BD1D
:1017D000D41D00209C07002080B584B000AF0346D4
:1017E000FB80FB88FB810121094843F04DFF01216B
:1017F000074843F0A7FF0021054843F0A3FF044832
:1018000043F006FEB7F90E3018461037BD4680BDCE
:101810000058004080B582B000AF78607B682C4AE9
:10182000934208D10121102003F08CFA00211020EE
:1018300003F088FA47E07B68264A93420AD10121E7
:101840004FF4003003F05EFA00214FF4003003F053
:1018500059FA38E07B68204A93420AD101214FF4BB
:10186000802003F04FFA00214FF4802003F04AFA61
:1018700029E07B68194A93420AD101214FF40020E4
:1018800003F040FA00214FF4002003F03BFA1AE085
:101890007B68134A93420AD101214FF4801003F070
:1018A00031FA00214FF4801003F02CFA0BE07B6832
:1018B0000C4A934207D10121202003F043FA002172
:1018C000202003F03FFA00BF0837BD4680BD00BFAF
:1018D000001001400044004000480040004C00401F
:1018E000005000400014014080B58AB000AF78601D
:1018F000396000237B6200233B620023FB610023ED
:10190000BB617B681B8A9BB27B627B6A23F440537A
:101910007B623B68DB881A467B6A13437B627B6A87
:101920009AB27B681A827B689B899BB27B627B6AD6
:1019300023F4B05323F00C037B623B689A883B6826
:101940001B8913439AB23B685B8913439BB21A46C7
:101950007B6A13437B627B6A9AB27B689A817B685D
:101960009B8A9BB27B627B6A23F440737B623B68F9
:101970009B891A467B6A13437B627B6A9AB27B68B7
:101980009A8207F10803184603F0B2F87B68304AE0
:10199000934203D07B682F4A934202D17B693B621A
:1019A00001E03B693B627B689B899BB21BB2002BC9
:1019B0000CDA3A6A13469B0013449A001A443B68B7
:1019C0001B685B00B2FBF3F3FB610BE03A6A134662
:1019D0009B0013449A001A443B681B689B00B2FBAF
:1019E000F3F3FB61FB691C4AA2FB03235B091B01A8
:1019F0007B627B6A1B09642202FB03F3FA69D31A38
:101A0000BB617B689B899BB21BB2002B0CDABB6964
:101A1000DB003233104AA2FB03235B0903F0070308
:101A20007A6A13437B620BE0BB691B0132330A4ABB
:101A3000A2FB03235B0903F00F037A6A13437B6263
:101A40007B6A9AB27B681A8100BF2837BD4680BD89
:101A500000100140001401401F85EB5180B483B099
:101A600000AF78600B46FB70FB78002B08D07B68DA
:101A70009B899BB243F400539AB27B689A8107E03A
:101A80007B689B899BB223F400539AB27B689A814E
:101A900000BF0C37BD465DF8047B704780B483B04F
:101AA00000AF78600B467B807B88C3F308039AB253
:101AB0007B689A8000BF0C37BD465DF8047B704799
:101AC00080B487B000AF78600B467B8013467B7094
:101AD00000233B610023FB600023BB6000237B618C
:101AE0007B687B617B88DBB25B09DBB23B617B8817
:101AF00003F01F03FB600122FB6802FA03F3BB60E3
:101B00003B69012B03D17B690C337B6109E03B69A5
:101B1000022B03D17B6910337B6102E07B691433B4
:101B20007B617B78002B06D07B697A691168BA6883
:101B30000A431A6006E07B697A691168BA68D24381
:101B40000A401A6000BF1C37BD465DF8047B704731
:101B500080B485B000AF78600B467B800023FB73B8
:101B60007B681B889AB27B8813409BB2002B02D003
:101B70000123FB7301E00023FB73FB7B1846143742
:101B8000BD465DF8047B704780B483B000AF7860D9
:101B90000B467B807B88DB439AB27B681A8000BF50
:101BA0000C37BD465DF8047B704700BF80B487B03A
:101BB00000AF78600B467B800023FB6000237B61D5
:101BC0000023BB600023FB747B88DBB25B09DBB2C4
:101BD000BB607B8803F01F037B6101227B6902FAF3
:101BE00003F37B61BB68012B07D17B689B899BB2A8
:101BF0001A467B6913407B6111E0BB68022B07D159
:101C00007B681B8A9BB21A467B6913407B6106E0A6
:101C10007B689B8A9BB21A467B6913407B617B88F9
:101C20001B0A9BB2FB600122FB6802FA03F3FB6014
:101C30007B681B889BB21A46FB681340FB607B697C
:101C4000002B05D0FB68002B02D00123FB7401E0C0
:101C50000023FB74FB7C18461C37BD465DF8047BF3
:101C6000704700BF80B500AF0121042002F0EAFFF9
:101C7000254B10221A60244B03221A71224B00229A
:101C8000DA71214921480EF037F901214FF4007033
:101C900003F018F81E4B00221A601D4B00225A60F8
:101CA0001B4B00229A601A4B0022DA60184809F098
:101CB000B9F9184B4FF000721A60164B00221A71D6
:101CC000144B01225A71134B00229A60114B0022CF
:101CD000DA60104B00221A610E4B01221A750D4971
:101CE0000D4809F049F901210B4809F0C3F9012118
:101CF000094809F0B5FA002301220E21064809F02F
:101D0000D5F900BF80BD00BFD833002000080240D5
:101D1000543A0020DC2900200021014080B500AFAA
:101D20002C4809F08DFA2B4809F0B6FA294809F039
:101D3000B3FA03461A46284B1A60274B1B68292B17
:101D400007D9254B1B68322B03D8244B01221A805C
:101D50003EE0214B1B68312B07D91F4B1B68372BEB
:101D600003D81E4B02221A8032E01B4B1B68362B15
:101D700007D9194B1B683F2B03D8184B03221A8035
:101D800026E0154B1B68482B07D9134B1B68532BB8
:101D900003D8124B04221A801AE00F4B1B68632BE6
:101DA00007D90D4B1B686E2B03D80C4B05221A80EC
:101DB0000EE0094B1B688D2B07D9074B1B68942B32
:101DC00003D8064B06221A8002E0044B00221A8038
:101DD00000BF80BD00210140403900204C3500206B
:101DE000B0B500AF43F074FE0021002043F05EFE6A
:101DF000554A564B15461C460FCC28606960AA60B0
:101E0000EB6023782B74504843F03CFE0121052001
:101E100043F04CFE4E4B1B881A464E494A4849F047
:101E200025FC494843F02EFE494B1B88013B052BFE
:101E300074D801A252F823F0511E00086F1E00084A
:101E40008D1E0008AF1E0008D51E0008FB1E0008EE
:101E50000221002043F02AFE3B4A3F4B144607CBA9
:101E600020606160A260384843F00CFE56E0022119
:101E7000002043F01BFE344A384B144607CB206049
:101E80006160A260304843F0FDFD47E00221002080
:101E900043F00CFE2C4A324B03CB10605160198882
:101EA0009B7811819372284843F0ECFD36E00221C3
:101EB000002043F0FBFD244A2A4B15461C460FCC5C
:101EC00028606960AA60EB6023782B741E4843F099
:101ED000D9FD23E00221002043F0E8FD1A4A224BFD
:101EE000144607CB20606160A2601A889B78A281AB
:101EF000A373154843F0C6FD10E00221002043F013
:101F0000D5FD114A194B144607CB20606160A260D1
:101F10001B88A3810C4843F0B5FD00BF03210220BC
:101F200043F0C4FD084A124B144607CB20606160A1
:101F3000A2601B782373044843F0A4FD64200EF0D4
:101F400081FA00BFB0BD00BFB41D002010F9040825
:101F50004C35002024F904082CF9040838F9040849
:101F600044F9040850F9040864F9040874F90408F1
:101F700084F9040880B500AF00F004F800F022F8FE
:101F800000BF80BD80B500AF0121102002F05AFED5
:101F90000A4B20221A60094B00221A71074B0022BB
:101FA0009A71064B03225A71044B0222DA710349DB
:101FB00003480DF0A1FF00BF80BD00BFD833002053
:101FC0000010024080B500AF0121102002F03AFE5F
:101FD000154B40221A60144B00221A71124B00223A
:101FE0009A71114B03225A710F4B0222DA710E497A
:101FF0000E480DF081FF0121102002F023FE0A4B54
:1020000010221A60084B00221A71074B00229A71A5
:10201000054B03225A71044B0222DA71024903482C
:102020000DF06AFF00BF80BDD833002000100240D1
:1020300080B483B000AF786000BF0C37BD465DF858
:10204000047B704780B500AF0121082002F0FAFD43
:102050000A4B02221A60094B01221A71074B002217
:102060009A71064B03225A71044B0022DA7103491C
:1020700003480DF041FF00BF80BD00BFD8330020F2
:102080000000024080B500AF0121102002F0DAFD0F
:102090000A4B01221A60094B01221A71074B0022D8
:1020A0009A71064B03225A71044B0022DA710349DC
:1020B00003480DF021FF00BF80BD00BFD8330020D2
:1020C0000010024080B500AF0121012002F0BAFDEE
:1020D0000A4B20221A60094B01221A71074B002279
:1020E0009A71064B03225A71044B0022DA7103499C
:1020F00003480DF001FF00BF80BD00BFD8330020B2
:102100000000024080B584B000AF0121082002F039
:10211000B9FD42F2CF03BB800023FB804FF47A73FA
:10212000BB600023BB810023BB733B1D19460E48D7
:1021300044F0A8FF01210C4845F030F800220121AD
:10214000094845F0AFFA32233B7000237B7000232F
:10215000BB700123FB703B46184643F0CBFC00BF2D
:102160001037BD4680BD00BF000C004080B500AFF9
:102170000121354845F0BAFA0346002B61D0334BB4
:102180001B68002B3BD1324B1B88002B04D1022152
:1021900030480DF069FF50E02D4B1B88002B4CD0D0
:1021A0002D4B1B88012B07D102212A480DF04CFF33
:1021B000294B02221A800AE0274B1B88022B06D1EA
:1021C000022124480DF050FF234B01221A80204B9E
:1021D0001B8801339AB21E4B1A801D4B1B88B3F526
:1021E0007A6F2AD302211B480DF03EFF184B0022C4
:1021F0001A8000220121144845F054FA1DE0134BC7
:102200001B68012B19D1124B00221A80124B1B881C
:10221000012B07D102210F480DF016FF0E4B0222B1
:102220001A800AE00C4B1B88022B06D102210948B8
:102230000DF01AFF084B01221A800121024845F0D7
:102240007FFA00BF80BD00BF000C0040A414002036
:10225000B0140020000002406C000020B0B582B035
:1022600000AF786043F034FC0021022043F01EFCF4
:10227000214A224B03CB1060516019889B78118151
:1022800093721D4843F0FEFB0121042043F00EFC35
:10229000194A1B4B03CB106051601B8813811648F1
:1022A00043F0F0FB0221002043F000FC124A154BE2
:1022B00015461C460FCC28606960AA60EB60237845
:1022C0002B740D4843F0DEFB0321022043F0EEFBAC
:1022D000094A0D4B144607CB20606160A2601B7851
:1022E0002373054843F0CEFB64200EF0ABF800BF2B
:1022F0000837BD46B0BD00BFB41D002094F90408E6
:10230000A0F90408ACF90408C0F9040880B582B04B
:1023100000AF134B7B60134B3B6007E03B681A1D1B
:102320003A607A68111D796012681A603B680E4A3B
:102330009342F3D30D480E494FF000028842B8BFD4
:1023400040F8042BFADBDFF82C00016841F470013F
:10235000016001F047F800BF0837BD4680BD00BFEF
:102360005022050800000020C0130020C0130020E8
:102370005C63002088ED00E080B400AFFEE700BFA2
:1023800080B582B000AF0121042002F07BFC012166
:10239000082002F057FC394B4FF470421A60374B5B
:1023A00002221A71354B03225A71344B00229A7162
:1023B000324B0122DA71314931480DF09DFD022284
:1023C0000C212F480DF060FE02220D212C480DF04B
:1023D0005BFE02220E212A480DF056FE02220F213A
:1023E00027480DF051FE5423FB80264B44F61F6214
:1023F0005A60244AFB881380224B00221A81214B09
:1024000000225A801F49204844F03CFE1F4B6022A6
:102410001A801E4B01225A801C4B00229A601B4BD3
:1024200000229A811949184844F0D8FE082116481C
:1024300045F0C4F81549144844F04AFF08211248F1
:1024400045F0D8F81149104844F0CAFF08210E4859
:1024500045F0EEF80D490C4845F048F808210A48C7
:1024600045F002F90121084844F078FE01210648B0
:1024700044F094FE00BF0837BD4680BDD83300202D
:10248000000C02401C1E002000080040DC2F002031
:1024900080B483B000AF786039607B68013B032B68
:1024A0001AD801A252F823F0B9240008C124000868
:1024B000C9240008D12400080A4A3B6853630BE092
:1024C000084A3B68936307E0064A3B68D36303E02E
:1024D000044A3B68136400BF00BF0C37BD465DF87B
:1024E000047B704700080040B0B582B000AF002305
:1024F0007B6000233B6043F0EBFA0021002043F0B7
:10250000D5FA864A864B15461C460FCC2860696072
:10251000AA60EB6023782B74804843F0B3FA012162
:10252000002043F0C3FA7D4A7E4B15461C460FCC73
:1025300028606960AA60EB6023782B74774843F0C9
:10254000A1FA0221002043F0B1FA744A764B1546F5
:102550001C460FCC28606960AA60EB6023782B745E
:102560006E4843F08FFA0321002043F09FFA6B4A34
:102570006E4B15461C460FCC28606960AA60EB6064
:1025800023782B74654843F07DFA202168480DF0CC
:1025900041FD0346012B01D101237B607B68012BA8
:1025A00040F0B78000233B601CE03A6813469B0074
:1025B000134403F5167319460220FFF769FF3A68C2
:1025C00013469B079B1A9B009B1A03F5166319463B
:1025D0000320FFF75DFF4FF47A700DF00DFF3B68AD
:1025E00001333B603B68B42BDFDD00233B601CE024
:1025F0003A6813469B00134403F2DC531946022049
:10260000FFF746FF3A6813469B079B1A9B009B1AED
:1026100003F2DC5319460320FFF73AFF4FF47A70B8
:102620000DF0EAFE3B6801333B603B68782BDFDD51
:1026300001213F480DF008FD4FF47A700DF002FFC4
:1026400000F096F820213A480DF0E4FC0346002BF8
:1026500004D1384B1B68184644F0E0FA2021344876
:102660000DF0D8FC0346012B00D0EBE700BF4FF480
:10267000FA700DF0E7FE00F08FF84FF4FA700DF0ED
:10268000E1FE00233B601CE03A6813469B079B1A5F
:102690009B009B1A03F6340319460220FFF7F8FE4D
:1026A0003A6813469B00134403F5617319460320EF
:1026B000FFF7EEFE4FF4FA600DF09EFE3B6801332B
:1026C0003B603B68782BDFDD00233B601CE03A6811
:1026D00013469B079B1A9B009B1A03F2DC53194677
:1026E0000220FFF7D5FE3A6813469B00134403F21D
:1026F000DC5319460320FFF7CBFE4FF4FA600DF0D0
:102700007BFE3B6801333B603B68B42BDFDD00237D
:102710007B6000BF0837BD46B0BD00BFB41D0020C0
:10272000FCFA040810FB040888FB040838FB0408C2
:1027300000100240F405002080B500AF40F29E7109
:102740000220FFF7A5FE40F21A410320FFF7A0FE8A
:1027500000BF80BD80B500AF4FF416710220FFF7B7
:1027600097FE4FF416610320FFF792FE00BF80BD75
:1027700080B500AF40F2DC510420FFF789FE00BFB6
:1027800080BD00BF80B500AF40F272610420FFF74A
:102790007FFE00BF80BD00BF80B500AF40F60201E4
:1027A0000420FFF775FE00BF80BD00BFB0B586B046
:1027B00000AF43F08DF90021002043F077F9924AF1
:1027C000924B15461C460FCC28606960AA60EB60EE
:1027D00023782B748C4843F055F90121002043F0F5
:1027E00065F9894A8A4B15461C460FCC28606960FA
:1027F000AA60EB6023782B74834843F043F90221ED
:10280000002043F053F9804A824B15461C460FCCFA
:1028100028606960AA60EB6023782B747A4843F0E3
:1028200031F90321002043F041F9774A7A4B1546EC
:102830001C460FCC28606960AA60EB6023782B747B
:10284000714843F01FF9202174480DF0E3FB034663
:10285000012B00D0ADE700BF00237B6100237B612B
:1028600062E07A6913469B079B1A9B009B1A03F54B
:10287000166319460220FFF70BFE7A6913469B0088
:10288000134403F5167319460320FFF701FE4FF4B6
:10289000FA600DF0B1FD30E07A6913469B079B1A90
:1028A0009B009B1A03F516633B617A6913469B00F4
:1028B000134403F51673FB6043F00AF9002100206E
:1028C00043F0F4F83A6956494F4848F0CFFE4E4875
:1028D00043F0D8F80121002043F0E8F8FA685149A4
:1028E000494848F0C3FE484843F0CCF820214B4803
:1028F0000DF090FB0346012B12D07B691E2BCBD031
:102900007B693C2BC8D07B695A2BC5D07B69782B5F
:10291000C2D07B69962BBFD07B69B42BBCD000E0C2
:1029200000BF7B6901337B617B69B42B99DD002398
:102930007B6162E07A6913469B079B1A9B009B1A96
:1029400003F2DC5319460220FFF7A2FD7A69134611
:102950009B00134403F2DC5319460320FFF798FD54
:102960004FF4FA600DF048FD30E07A6913469B079A
:102970009B1A9B009B1A03F2DC53BB607A691346D7
:102980009B00134403F2DC537B6043F0A1F8002169
:10299000002043F08BF8BA6821491B4848F066FED6
:1029A000194843F06FF80121002043F07FF87A685E
:1029B0001C49154848F05AFE134843F063F820219B
:1029C00016480DF027FB0346012B12D07B691E2B06
:1029D000CBD07B693C2BC8D07B695A2BC5D07B6997
:1029E000782BC2D07B69962BBFD07B69B42BBCD02F
:1029F00000E000BF7B6901337B617B69B42B99DD0B
:102A000000BF1837BD46B0BDB41D0020FCFA040855
:102A100010FB04089CFB040838FB0408001002406B
:102A2000B0FB0408BCFB0408B0B586B000AF43F0AF
:102A30004FF80021002043F039F8924A924B154696
:102A40001C460FCC28606960AA60EB6023782B7469
:102A50008C4843F017F80121002043F027F8894AF9
:102A60008A4B15461C460FCC28606960AA60EB6053
:102A700023782B74834843F005F80221002043F0AB
:102A800015F8804A824B15461C460FCC28606960B9
:102A9000AA60EB6023782B747A4842F0F3FF03219D
:102AA000002043F003F8774A7A4B15461C460FCCBA
:102AB00028606960AA60EB6023782B74714842F04B
:102AC000E1FF202174480DF0A5FA0346012B00D048
:102AD000ADE700BF00237B6100237B6162E07A6980
:102AE00013469B00134403F5167319460220FFF7A3
:102AF000CFFC7A6913469B079B1A9B009B1A03F530
:102B0000166319460320FFF7C3FC4FF47A700DF0EB
:102B100073FC30E07A6913469B00134403F5167387
:102B20003B617A6913469B079B1A9B009B1A03F52E
:102B30001663FB6042F0CCFF0021002042F0B6FF9C
:102B40003A6956494F4848F091FD4E4842F09AFF85
:102B50000121002042F0AAFFFA685149494848F093
:102B600085FD484842F08EFF20214B480DF052FA77
:102B70000346012B12D07B691E2BCBD07B693C2BEB
:102B8000C8D07B695A2BC5D07B69782BC2D07B69B2
:102B9000962BBFD07B69B42BBCD000E000BF7B6913
:102BA00001337B617B69B42B99DD00237B6162E09B
:102BB0007A6913469B00134403F2DC531946022042
:102BC000FFF766FC7A6913469B079B1A9B009B1ACA
:102BD00003F2DC5319460320FFF75AFC4FF47A70D6
:102BE0000DF00AFC30E07A6913469B00134403F2AF
:102BF000DC53BB607A6913469B079B1A9B009B1AA8
:102C000003F2DC537B6042F063FF0021002042F0BE
:102C10004DFFBA6821491B4848F028FD194842F089
:102C200031FF0121002042F041FF7A681C4915481C
:102C300048F01CFD134842F025FF202116480DF0F6
:102C4000E9F90346012B12D07B691E2BCBD07B699F
:102C50003C2BC8D07B695A2BC5D07B69782BC2D05E
:102C60007B69962BBFD07B69B42BBCD000E000BF42
:102C70007B6901337B617B69B42B99DD00BF183719
:102C8000BD46B0BDB41D0020FCFA040810FB0408CA
:102C9000C8FB040838FB040800100240B0FB04081D
:102CA000BCFB0408B0B500AF42F012FF00210020C9
:102CB00042F0FCFE7E4A7F4B15461C460FCC286036
:102CC0006960AA60EB6023782B74794842F0DAFEE1
:102CD0000121002042F0EAFE754A774B15461C465A
:102CE0000FCC28606960AA60EB6023782B74704871
:102CF00042F0C8FE0221002042F0D8FE6C4A6F4B21
:102D000015461C460FCC28606960AA60EB602378EA
:102D10002B74674842F0B6FE0321002042F0C6FE45
:102D2000634A674B15461C460FCC28606960AA6051
:102D3000EB6023782B745E4842F0A4FE20216148AA
:102D40000DF068F90346012B00D0ADE700BF4FF44A
:102D500061710420FFF79CFB42F0BAFE00210020C5
:102D600042F0A4FE4FF461725749514848F07EFC8E
:102D70004F4842F087FE202152480DF04BF90346A0
:102D8000012B00D0E8E700BF4FF496610420FFF765
:102D90007FFB42F09DFE0021002042F087FE4FF4B1
:102DA00096624A49424848F061FC414842F06AFE56
:102DB000202144480DF02EF90346012B00D0E8E70E
:102DC00000BF40F2DC510420FFF762FB42F080FEBE
:102DD0000021002042F06AFE40F2DC523C493448B7
:102DE00048F044FC324842F04DFE202135480DF0B9
:102DF00011F90346012B00D0E8E700BF4FF4E16171
:102E00000420FFF745FB42F063FE0021002042F062
:102E10004DFE4FF4E1622F49254848F027FC244835
:102E200042F030FE202127480DF0F4F80346012B34
:102E300000D0E8E700BF40F634010420FFF728FB8C
:102E400042F046FE0021002042F030FE40F63402FF
:102E50002149174848F00AFC154842F013FE20218A
:102E600018480DF0D7F80346012B00D0E8E700BF63
:102E70004FF416610420FFF70BFB42F029FE0021FE
:102E8000002042F013FE4FF416621449084848F03F
:102E9000EDFB074842F0F6FD20210A480DF0BAF894
:102EA0000346012B00D0E8E700BF00BFB0BD00BF64
:102EB000B41D0020FCFA040810FB0408DCFB040825
:102EC00038FB040800100240F0FB0408FCFB040877
:102ED00008FC040814FC040824FC040834FC04085E
:102EE000B0B500AF42F0F4FD0021002042F0DEFD5D
:102EF0007E4A7F4B15461C460FCC28606960AA604D
:102F0000EB6023782B74794842F0BCFD012100204E
:102F100042F0CCFD754A774B15461C460FCC286015
:102F20006960AA60EB6023782B74704842F0AAFDB8
:102F30000221002042F0BAFD6C4A6F4B15461C4638
:102F40000FCC28606960AA60EB6023782B74674817
:102F500042F098FD0321002042F0A8FD634A674B30
:102F600015461C460FCC28606960AA60EB60237888
:102F70002B745E4842F086FD202161480DF04AF82E
:102F80000346012B00D0ADE700BF4FF416610420CB
:102F9000FFF77EFA42F09CFD0021002042F086FD02
:102FA0004FF416625749514848F060FB4F4842F0D1
:102FB00069FD202152480DF02DF80346012B00D069
:102FC000E8E700BF40F634010420FFF761FA42F061
:102FD0007FFD0021002042F069FD40F634024A499D
:102FE000424848F043FB414842F04CFD2021444810
:102FF0000DF010F80346012B00D0E8E700BF4FF4B6
:10300000E1610420FFF744FA42F062FD0021002054
:1030100042F04CFD4FF4E1623C49344848F026FB55
:10302000324842F02FFD202135480CF0F3FF0346D3
:10303000012B00D0E8E700BF40F2DC510420FFF78D
:1030400027FA42F045FD0021002042F02FFD40F21A
:10305000DC522F49254848F009FB244842F012FD74
:10306000202127480CF0D6FF0346012B00D0E8E7CB
:1030700000BF4FF496610420FFF70AFA42F028FDE2
:103080000021002042F012FD4FF4966221491748BA
:1030900048F0ECFA154842F0F5FC202118480CF0F5
:1030A000B9FF0346012B00D0E8E700BF4FF4617180
:1030B0000420FFF7EDF942F00BFD0021002042F063
:1030C000F5FC4FF461721449084848F0CFFA0748FC
:1030D00042F0D8FC20210A480CF09CFF0346012B4B
:1030E00000D0E8E700BF00BFB0BD00BFB41D0020A6
:1030F000FCFA040810FB040844FC040838FB04082C
:103100000010024034FC040824FC040814FC0408E9
:1031100008FC0408FCFB0408F0FB040880B582B03E
:1031200000AF00237B6000237B601CE07A681346BD
:103130009B00134403F5167319460220FFF7A8F904
:103140007A6813469B079B1A9B009B1A03F516632C
:1031500019460320FFF79CF94FF47A700DF04CF9F3
:103160007B6801337B607B68B42BDFDD00237B60F1
:103170001CE07A6813469B00134403F2DC531946A3
:103180000220FFF785F97A6813469B079B1A9B007C
:103190009B1A03F2DC5319460320FFF779F94FF429
:1031A0007A700DF029F97B6801337B607B68962B80
:1031B000DFDD00BF0837BD4680BD00BF80B582B0EF
:1031C00000AF00237B6000237B601CE07A6813461D
:1031D0009B079B1A9B009B1A03F6CA031946022001
:1031E000FFF756F97A6813469B00134403F2EE2367
:1031F00019460320FFF74CF940F6C4100DF0FCF817
:103200007B6801337B607B68782BDFDD00237B608C
:103210001CE07A6813469B079B1A9B009B1A03F2DB
:10322000DC5319460220FFF733F97A6813469B00F6
:10323000134403F2DC5319460320FFF729F940F643
:10324000C4100DF0D9F87B6801337B607B68B42B28
:10325000DFDD00BF0837BD4680BD00BF80B582B04E
:1032600000AF00237B6000237B601CE07A6813467C
:103270009B079B1A9B009B1A03F6CA031946022060
:10328000FFF706F97A6813469B00134403F2EE2316
:1032900019460320FFF7FCF840F6C4100DF0ACF817
:1032A0007B6801337B607B685A2BDFDD00BF08370A
:1032B000BD4680BD80B582B000AF00237B60002397
:1032C0007B601CE07A6813469B079B1A9B009B1A45
:1032D00003F5E16319460220FFF7DAF87A6813462E
:1032E0009B00134403F5966319460320FFF7D0F8BB
:1032F00040F6C4100DF080F87B6801337B607B687A
:103300003C2BDFDD00237B601CE07A6813469B07C3
:103310009B1A9B009B1A03F2DC5319460220FFF70D
:10332000B7F87A6813469B00134403F2DC5319463E
:103330000320FFF7ADF840F6C4100DF05DF87B6890
:1033400001337B607B68B42BDFDD00BF0837BD46EF
:1033500080BD00BF80B582B000AF00237B6000233A
:103360007B6018E07A6813469B00134403F52F73C3
:1033700019460220FFF78CF87A6813469B079B1AC0
:103380009B009B1A03F6C41319460320FFF780F82D
:103390007B6801337B607B68B42BE3DD00237B60BB
:1033A00018E07A6813469B00134403F28A231946F7
:1033B0000220FFF76DF87A6813469B079B1A9B0063
:1033C0009B1A03F6660319460320FFF761F87B6832
:1033D00001337B607B68962BE3DD00BF0837BD4679
:1033E00080BD00BFB0B58AB004AF00F02DFF4FF430
:1033F000FA700DF027F842F06BFBB54B1B68DBB29F
:103400001D221C211846FCF7D7FFB24B1B68DBB20C
:103410001D221C211846FCF7CFFFAF4B1B68DBB207
:103420001D221C211846FCF7C7FFA94B1B68DBB205
:1034300030211846FDF718F8A64B1B68DBB2312186
:103440001846FDF711F8A44B1B68DBB23021184673
:10345000FDF70AF89E4B1B68DBB21846FDF7D8F85B
:103460009C4B1B68DBB21846FDF7D2F89A4B1B68E1
:10347000DBB21846FDF7CCF80A200CF0E3FF974BBF
:103480001B68DBB21D221C211846FCF795FF944BEC
:103490001B68DBB21D221C211846FCF78DFF914BE7
:1034A0001B68DBB21D221C211846FCF785FF8B4BE5
:1034B0001B68DBB230211846FCF7D6FF884B1B682F
:1034C000DBB231211846FCF7CFFF864B1B68DBB21D
:1034D00030211846FCF7C8FF804B1B68DBB218464A
:1034E000FDF796F87E4B1B68DBB21846FDF790F8A7
:1034F0007C4B1B68DBB21846FDF78AF80A200CF0FB
:10350000A1FF794B1B68DBB21D221C211846FCF77A
:1035100053FF764B1B68DBB21D221C211846FCF7BB
:103520004BFF6D4B1B68DBB21D221C211846FCF7BC
:1035300043FF6D4B1B68DBB230211846FCF794FF4C
:103540006A4B1B68DBB231211846FCF78DFF684BD4
:103550001B68DBB230211846FCF786FF624B1B6804
:10356000DBB21846FDF754F8604B1B68DBB2184617
:10357000FDF74EF85E4B1B68DBB21846FDF748F8C6
:103580000A200CF05FFF5B4B1B68DBB21D221C2185
:103590001846FCF711FF584B1B68DBB21D221C219B
:1035A0001846FCF709FF554B1B68DBB21D221C2196
:1035B0001846FCF701FF4F4B1B68DBB23021184661
:1035C000FCF752FF4C4B1B68DBB231211846FCF76D
:1035D0004BFF4A4B1B68DBB230211846FCF744FF17
:1035E000444B1B68DBB21846FDF712F8424B1B68D0
:1035F000DBB21846FDF70CF8404B1B68DBB21846EF
:10360000FDF706F80A200CF01DFF3D4B1B68DBB2EE
:103610001D221C211846FCF7CFFE3A4B1B68DBB27B
:103620001D221C211846FCF7C7FE374B1B68DBB276
:1036300020221C211846FCF7BFFE314B1B68DBB271
:1036400030211846FCF710FF2E4B1B68DBB23121EE
:103650001846FCF709FF2C4B1B68DBB230211846DB
:10366000FCF702FF264B1B68DBB21846FCF7D0FFC5
:10367000244B1B68DBB21846FCF7CAFF224B1B68C1
:10368000DBB21846FCF7C4FF0A200CF0DBFE1F4B30
:103690001B68DBB21D221C211846FCF78DFE1C4B5B
:1036A0001B68DBB21D221C211846FCF785FE194B56
:1036B0001B68DBB21D221C211846FCF77DFE134B54
:1036C0001B68DBB230211846FCF7CEFE24E000BFB9
:1036D00060F7040864F7040868F704083CF7040876
:1036E00040F7040844F704086CF7040870F704086E
:1036F00074F7040848F704084CF7040850F7040866
:1037000078F704087CF7040880F7040854F70408E5
:1037100058F704085CF70408764B1B68DBB23121CC
:103720001846FCF7A1FE744B1B68DBB2302118462B
:10373000FCF79AFE714B1B68DBB21846FCF768FF7A
:103740006C4B1B68DBB21846FCF762FF6A4B1B68C8
:10375000DBB21846FCF75CFF0A200CF073FE684BE6
:103760001B68DBB2202220211846FCF725FE644BA3
:103770001B68DBB220211846FCF776FE0A200CF00D
:1037800061FE604B1B68DBB2202220211846FCF74B
:1037900013FE5D4B1B68DBB2202220211846FCF78C
:1037A0000BFE584B1B68DBB220211846FCF75CFE71
:1037B000554B1B68DBB220211846FCF755FE0A204A
:1037C0000CF040FE0A200CF03DFE01214F480CF0A9
:1037D0004BFCFEF7E1FFFEF7BDFF64200CF032FE6C
:1037E0000021002042F062F9494A4A4B03CB1060A5
:1037F00051601B881381464842F044F901214FF47F
:10380000967015F0E9F94FF4FA700CF01BFE0123E5
:103810003B613B69012B12D120213F480CF014FC85
:1038200002213D480CF010FCC8200CF00BFE0221D8
:1038300039480CF019FC202137480CF015FC0AF02F
:103840009FFB3B69002B40F0838000F0D5FD7C207E
:1038500001F098FA0346002B13D042F039F9002109
:10386000002042F023F92A4B2C4A1068186028489F
:1038700042F008F901F0C0FA4FF47A700CF0E2FD62
:1038800066E07B2001F07EFA0346002B17D042F061
:103890001FF90021002042F009F91D4B204A106851
:1038A00018609188927999809A71194842F0EAF8E3
:1038B00001F0A2FA4FF47A700CF0C4FD48E07A20CF
:1038C00001F060FA0346002B2ED042F001F90021EE
:1038D000002042F0EBF80E4B124A106818600C48BA
:1038E00042F0D0F801F088FA4FF47A700CF0AAFD9B
:1038F0002EE000BF58F704085CF7040854F70408EA
:103900008CF7040884F7040888F7040800100240C4
:10391000B41D002058FC04080000024064FC0408A8
:1039200068FC040870FC040842F0D2F80021002072
:1039300042F0BCF8984A994B03CB106051601B7859
:103940001372954842F09EF84FF47A700CF07AFDAD
:10395000FDF72EFFFDF710FE0346002B48D042F086
:10396000B7F80021002042F0A1F88B4A8C4B144696
:1039700007CB20606160A2601A889B78A281A37344
:10398000854842F07FF8874B40F23B121A60864B25
:10399000AD221A60854B4FF488721A60844BCE2298
:1039A0001A60844B81221A60834B4FF4B3721A6001
:1039B000824BEE221A60824B3B221A60814B4622D8
:1039C0001A60814BF2221A60804B8D221A60804B64
:1039D000DD221A607F4B57221A607F4B0B221A6040
:1039E0007E4B4FF4AB721A607D4B4FF49E721A609F
:1039F0007C4B1B68002B02DC7A4B0B221A60694B54
:103A00001A68694B1B6813445B08774A13600123EB
:103A1000FB60FB68012B4FD142F05AF800210020D7
:103A200042F044F85C4A714B144607CB2060616059
:103A3000A2601B782373584842F024F86C4B4FF473
:103A4000AB721A606B4BA6221A606B4B4FF48172FB
:103A50001A606A4B75221A60694B4FF4AB721A6098
:103A6000684BA6221A60684B4FF481721A60674B4C
:103A700075221A60664B40F24F121A60654B40F295
:103A800063121A60644BA6221A60644B4FF4817271
:103A90001A60634B75221A60624B4FF4AB721A6066
:103AA000614BA6221A60614B4FF481721A60604B21
:103AB00075221A6042F0C6FD42F00AF80023BB608E
:103AC00000237B607B68012B40F0FE807B68012B2C
:103AD00040F0FA800121002041F0E8FF554B1C68BE
:103AE000544B5D68534B9B68524AD26851490969EF
:103AF0005048406903900291019200932B46224660
:103B00004D49254847F0B2FD234841F0BBFF022153
:103B1000002041F0CBFF494B1C68484B5D68474B88
:103B20009B68464AD2684549096944484069039000
:103B30000291019200932B4622463F49164847F0D6
:103B400095FD154841F09EFF0321002041F0AEFF96
:103B50003B4B1C683A4B5D68394B9B68384AD268CE
:103B600037490969364840690390029101920093F0
:103B70002B4622463049084847F078FD064841F078
:103B800081FFFEE720212F480CF044FA0346012B69
:103B90005AD101237B619FE0B41D002074FC04080E
:103BA00080FC04087C190020801900208419002062
:103BB000881900208C1900209019002094190020E9
:103BC000981900209C190020A0190020A419002099
:103BD000A8190020B4190020AC190020B019002049
:103BE000B81900209C0700200C29002090FC040834
:103BF000CC180020D0180020D4180020D81800209D
:103C0000DC180020E8180020F4180020001900201B
:103C10000C19002010190020241900203019002050
:103C20003C19002048190020541900206019002078
:103C30006C19002024210020A0FC0408703700200B
:103C4000D822002000100240402196480CF0E2F9F2
:103C50000346012B11D100BF402192480CF0DAF944
:103C60000346012BF8D0904B1B68002B0CBF01239F
:103C70000023DBB21A468C4B1A60102189480CF0E5
:103C8000C9F90346012B11D100BF102185480CF062
:103C9000C1F90346012BF8D0844B1B68002B0CBFE5
:103CA00001230023DBB21A46804B1A60FEF736F878
:103CB000FEF796F820217B480CF0ACF90346012B67
:103CC00002D101237B6107E0202176480CF0A2F9A4
:103CD0000346002B3FF456AF202172480CF09AF9AE
:103CE0000346012B01D101237B61012170480CF0B7
:103CF00091F90346002B01D101233B607B69012B25
:103D000046D141F0E5FE0021052041F0CFFE694A91
:103D1000694B03CB1060516019889B7811819372B5
:103D2000644841F0AFFE0121042041F0BFFE614A2A
:103D3000624B03CB106051601B8813815D4841F0DA
:103D4000A1FE0221002041F0B1FE5A4A5C4B15460B
:103D50001C460FCC28606960AA60EB6023782B7446
:103D6000544841F08FFE0321002041F09FFE514A4C
:103D7000544B15461C460FCC28606960AA60EB6066
:103D800023782B744B4841F07DFE64200CF05AFBE5
:103D90004D4B1B88062B00F2388201A252F823F00B
:103DA0000B420008BD3D0008853E0008DD3E0008CE
:103DB0008141000895410008A941000841F088FEB2
:103DC0000021002041F072FE3A4A404B15461C4645
:103DD0000FCC28606960AA60EB6023782B743548AB
:103DE00041F050FE0121002041F060FE314A384B85
:103DF00015461C460FCC28606960AA60EB602378EA
:103E00002B742C4841F03EFE0221002041F04EFE72
:103E1000284A304B15461C460FCC28606960AA60C2
:103E2000EB6023782B74234841F02CFE0321002003
:103E300041F03CFE1F4A284B15461C460FCC28601B
:103E40006960AA60EB6023782B741A4841F01AFE6F
:103E500064200CF0F7FA02F025FE0121DC2014F0BA
:103E6000BBFE01210F480CF0EFF84FF4FA700CF094
:103E7000E9FA01210B480CF0F7F84FF4FA700CF056
:103E8000E1FAEAE7104B1B881846FEF7E7F903F062
:103E90007FFB202106480CF0E7F80121DC2014F01C
:103EA0009BFEF6E700100240EC050020F005002024
:103EB00000000240B41D0020B0FC0408BCFC040853
:103EC000C8FC0408DCFC04084C350020F0FC0408A5
:103ED00004FD040818FD04082CFD0408CD4B1B88C4
:103EE0001846FEF7BBF941F0F3FD0021002041F038
:103EF000DDFDC94AC94B15461C460FCC28606960D8
:103F0000AA60EB6023782B74C34841F0BBFD01210C
:103F1000002041F0CBFDC04AC14B15461C460FCCDA
:103F200028606960AA60EB6023782B74BA4841F07E
:103F3000A9FD0221002041F0B9FDB74AB94B154651
:103F40001C460FCC28606960AA60EB6023782B7454
:103F5000B14841F097FD0AF013F8B34B1B68B34A20
:103F6000136041F0B5FD0021002041F09FFDAA4AF9
:103F7000AA4B15461C460FCC28606960AA60EB600E
:103F800023782B74A44841F07DFD0121002041F0ED
:103F90008DFDA14AA24B15461C460FCC28606960D6
:103FA000AA60EB6023782B749B4841F06BFD0221E3
:103FB000002041F07BFD984A9D4B15461C460FCCD6
:103FC00028606960AA60EB6023782B74924841F006
:103FD00059FD0AF09BFC202196480CF01BF8034683
:103FE000012B41D100BF202192480CF013F8034669
:103FF000012BF8D0C8200CF025FA0BF009FE00BF09
:1040000020218C480CF006F80346012BF8D0C8207C
:104010000CF018FA0BF078FE00BF202185480BF059
:10402000F9FF0346012BF8D0C8200CF00BFA0BF077
:10403000E7FE00BF20217F480BF0ECFF0346012B79
:10404000F8D0C8200CF0FEF94FF4967014F0D8FBAD
:104050004FF47A700CF0F6F94FF47A7003F024F90B
:104060004FF4967014F0CCFB09F08AFF10217148D0
:104070000BF0D0FF0346012B3CD100BF20216D483F
:104080000BF0C8FF0346012BF8D0C8200CF0DAF97A
:104090000BF04AFC00BF202166480BF0BBFF034633
:1040A000012BF8D0C8200CF0CDF90BF0B9FC00BF03
:1040B000202160480BF0AEFF0346012BF8D0C8204A
:1040C0000CF0C0F90BF028FD00BF202159480BF07F
:1040D000A1FF0346012BF8D0C8200CF0B3F909F07A
:1040E00063FC0121DC2014F077FD534B1B68534A1D
:1040F000136036E740214F480BF08CFF0346012B3D
:104100007FF42FAF00BF20214A480BF083FF034606
:10411000012BF8D0C8200CF095F90BF099FA00BFEC
:10412000202144480BF076FF0346012BF8D0C8202D
:104130000CF088F90BF004FB00BF20213D480BF088
:1041400069FF0346012BF8D0C8200CF07BF90BF077
:104150006FFB00BF202137480BF05CFF0346012BAB
:10416000F8D0C8200CF06EF9642002F0DBFD0121CC
:10417000DC2014F031FD304B1B68304A1360F0E650
:10418000244B1B881846FEF769F841F0A1FC43F068
:10419000E9FAFCE71F4B1B881846FEF75FF841F071
:1041A00097FC02F0EDFCFCE71A4B1B881846FEF763
:1041B00055F841F08DFC0021012041F077FC164AB2
:1041C0001F4B144607CB20606160A2601A889B7861
:1041D000A281A373104841F055FC0121012041F058
:1041E00065FC0D4A174B144607CB20606160A26046
:1041F0001B88A381084841F045FC64200CF022F99B
:1042000041F066FC01F006F8FCE700231846183779
:10421000BD46B0BD4C350020B41D002040FD040853
:1042200054FD040868FD04082C1400204000002000
:104230007CFD0408001002402818002010230020F4
:1042400090FD0408A0FD040898B500AF0BF066FFD0
:104250000CF0A4F806F018FD32200CF0F3F841F051
:1042600003FC41F03BFC41F033FC41F031FC002108
:10427000022041F01BFC594A594B03CB106051609E
:1042800019889B7811819372544841F0FBFB0121FE
:10429000052041F00BFC514B524A10681860918880
:1042A000927999809A714D4841F0ECFB02210120EE
:1042B00041F0FCFB494A4C4B144607CB206061603F
:1042C000A2601A889B78A281A373444841F0DAFB6C
:1042D0000321012041F0EAFB404A444B144607CB3E
:1042E00020606160A2601A889B78A281A3733B481A
:1042F00041F0C8FB4FF4FA700CF0A4F841F05CFCFC
:1043000042F0E6FA3A48FCF7B3FA4FF4E13042F0F3
:104310003DFB4FF4E13000F07FFD3548FBF762FFD5
:10432000FDF728FEFDF78EFEFDF7ECFEFDF79AFC8B
:10433000FDF7F4FCFDF7A6FEFDF7C4FEFEF720F83E
:1043400009F01EFE0BF0F0F806F0F8FF06F07CFC1A
:1043500041F0BEFB0021022041F0A8FB1F4A204B88
:1043600003CB1060516019889B78118193721B48B0
:1043700041F088FB0121052041F098FB174B194AB9
:10438000106818609188927999809A71134841F069
:1043900079FB0221012041F089FB104A124B14469F
:1043A00007CB20606160A2601A889B78A281A3730A
:1043B0000A4841F067FB0321032041F077FB074ADD
:1043C0000C4B03CB106051601B881381034841F0F4
:1043D00059FB32200CF036F800BF98BDB41D002008
:1043E000B0FC0408B0FD0408B8FD0408C8FD0408CA
:1043F00040420F00D8FD0408B0B582B000AFA84B12
:1044000000221A6041F064FB0021022041F04EFBC3
:10441000A44AA54B03CB1060516019889B78118189
:104420009372A04841F02EFB0121022041F03EFB97
:104430009C4A9E4B144607CB20606160A2601B78AB
:104440002373984841F01EFB4FF4FA700BF0FAFF0B
:1044500041F03EFB0021022041F028FB914A924BA3
:1044600003CB1060516019889B78118193728D483D
:1044700041F008FB0121032041F018FB894A8C4BD5
:1044800003CB1060516019889B7811819372854825
:1044900041F0F8FA4FF4FA700BF0D4FF41F018FB3A
:1044A000844B9B68FD2B03D0824B9B68002B0AD169
:1044B0007B4B1B68804A012142F82310784B1B6814
:1044C0000133774A13607B4B1B6AFD2B03D0794B7A
:1044D0001B6A002B0AD1724B1B68774A022142F8F3
:1044E00023106F4B1B6801336D4A1360714B5B687F
:1044F000FD2B03D06F4B5B68002B0AD1684B1B6808
:104500006D4A032142F82310654B1B680133644A4E
:104510001360684B1B68FD2B03D0664B1B68002B98
:104520000AD15F4B1B68644A042142F823105C4B9C
:104530001B6801335A4A13605E4B1B69FD2B03D085
:104540005C4B1B69002B0AD1554B1B685A4A05214D
:1045500042F82310524B1B680133514A1360554BEC
:10456000DB68FD2B03D0534BDB68002B0AD14C4B8F
:104570001B68514A062142F82310494B1B6801333E
:10458000474A13604B4BDB69FD2B03D0494BDB697A
:10459000002B0AD1424B1B68474A072142F82310DF
:1045A0003F4B1B6801333E4A1360424B9B69FD2B16
:1045B00003D0404B9B69002B0AD1394B1B683E4A04
:1045C000082142F82310364B1B680133344A13602C
:1045D000334B1B68002B40F3098200237B60FFE113
:1045E000354A7B6852F82330082B00F2F68101A28D
:1045F00052F823F067490008194600087946000878
:104600000B4700086B470008CF47000837480008F1
:104610009F4800080549000841F05AFA002100208F
:1046200041F044FA1F4A254B144607CB20606160D5
:10463000A2601C4841F026FA0DE00121002041F063
:1046400035FA184A1E4B03CB106051601B8813814A
:10465000144841F017FA20211A480BF0DBFC0346FE
:10466000002B40F09481134B9B68002BE5D0114B3D
:104670009B68FD2BE1D08AE141F02AFA002100205D
:1046800041F014FA074A104B03CB106051601988AF
:104690009B7811819372034841F0F4F924E000BF44
:1046A0003C150020B41D0020B0FC0408E4FD040803
:1046B000F4FD0408D41400201C15002000FE04089A
:1046C0000CFE04080010024018FE0408012100201E
:1046D00041F0ECF9B54AB64B03CB106051601B8832
:1046E0001381B24841F0CEF92021B2480BF092FC80
:1046F0000346002B40F04D81AF4B1B6A002BE5D0E9
:10470000AD4B1B6AFD2BE1D043E141F0E1F9002103
:10471000002041F0CBF9A54AA84B144607CB2060F6
:104720006160A260A14841F0ADF90DE001210020D7
:1047300041F0BCF99D4A9E4B03CB106051601B8831
:1047400013819A4841F09EF920219A480BF062FCAF
:104750000346002B40F01F81974B5B68002BE5D090
:10476000954B5B68FD2BE1D015E141F0B1F90021DB
:10477000002041F09BF98D4A914B03CB10605160B2
:1047800019889B7811819372884841F07BF90DE07C
:104790000121002041F08AF9844A854B03CB106047
:1047A00051601B881381814841F06CF920218148B8
:1047B0000BF030FC0346002B40F0EF807E4B1B6873
:1047C000002BE5D07C4B1B68FD2BE1D0E5E041F0F0
:1047D0007FF90021002041F069F9744A794B1546B0
:1047E0001C460FCC28606960AA60EB6023882B828E
:1047F0006E4841F047F90DE00121002041F056F9E3
:104800006A4A6B4B03CB106051601B881381674869
:1048100041F038F9202167480BF0FCFB0346002BE0
:1048200040F0BD80644B1B69002BE5D0624B1B69D7
:10483000FD2BE1D0B3E041F04BF90021002041F025
:1048400035F95A4A604B15461C460FCC2860696002
:10485000AA60EB6023782B74544841F013F90DE003
:104860000121002041F022F9504A514B03CB106046
:1048700051601B8813814D4841F004F920214D48B7
:104880000BF0C8FB0346002B40F08B804A4BDB68E3
:10489000002BE5D0484BDB68FD2BE1D081E041F0F7
:1048A00017F90021002041F001F9404A474B154615
:1048B0001C460FCC28606960AA60EB6023782B74DB
:1048C0003A4841F0DFF80DE00121002041F0EEF818
:1048D000364A374B03CB106051601B881381334835
:1048E00041F0D0F8202133480BF094FB0346002B15
:1048F00059D1314BDB69002BE6D02F4BDB69FD2B07
:10490000E2D050E041F0E4F80021002041F0CEF880
:10491000264A2F4B14461D460FCD20606160A260D1
:10492000E360224841F0AEF80DE00121002041F0A3
:10493000BDF81E4A1E4B03CB106051601B881381CB
:104940001A4841F09FF820211A480BF063FB0346F8
:10495000002B41D1184B9B69002BE6D0164B9B696D
:10496000FD2BE2D038E041F0B3F80021062041F001
:104970009DF80E4B174A1068186012791A710B488F
:1049800041F080F84FF47A700BF05CFD25E000BF39
:1049900023E000BF21E000BF1FE000BF1DE000BF1B
:1049A0001BE000BF19E000BF17E000BFB41D0020EE
:1049B0000CFE040800100240D414002024FE040859
:1049C00030FE04083CFE040850FE040864FE04089F
:1049D00078FE040888FE040800BF7B6801337B6012
:1049E0003A4B1B687A689A42FFF6FAAD41F070F8CC
:1049F0000021002041F05AF8354A364B03CB1060B5
:104A0000516019889B7811819372314841F03AF8CE
:104A10000121002041F04AF82D4A2F4B144607CBC4
:104A200020606160A2602A4841F02CF82B4B1B6883
:104A3000012B16D141F04CF80021002041F036F84E
:104A4000234A274B144607CB20606160A2601B8875
:104A5000A3811F4841F016F84FF47A700BF0F2FC76
:104A600029E041F035F80021002041F01FF8184AF4
:104A70001C4B144607CB20606160A260144841F0D3
:104A800001F80DE00121002041F010F8104A164B0A
:104A900003CB106051601B8813810D4840F0F2FF7A
:104AA000202112480BF0B6FA0346002B03D10B4B22
:104AB0001B68002BE6D041F0EDFA4FF47A700BF052
:104AC000C1FC00BF0837BD46B0BD00BF3C1500208B
:104AD000B41D0020B0FC040890FE0408401500201E
:104AE0009CFE0408ACFE04080CFE04080010024002
:104AF00080B489B000AF78600023BB6100237B6184
:104B00000023FB6102233B610023FB600223BB60A7
:104B1000484B9B6803F00C03BB61BB69042B07D0B7
:104B2000082B09D0002B3FD17B68434A1A603FE035
:104B30007B68424A1A603BE03E4B5B6803F48003AB
:104B40009B0DFB603B4B5B6803F03F03BB60FB6866
:104B5000002B0DD0394ABB68B2FBF3F2354B5968D4
:104B600047F6C0730B409B0903FB02F3FB610CE0AB
:104B7000314ABB68B2FBF3F22E4B596847F6C0735B
:104B80000B409B0903FB02F3FB612A4B5B6803F4B8
:104B900040331B0C01335B003B61FA693B69B2FB9C
:104BA000F3F27B681A6003E07B68234A1A6000BF57
:104BB000204B9B6803F0F003BB61BB691B09BB6121
:104BC0001F4ABB6913441B78DBB27B617B681A68A0
:104BD0007B69DA407B685A60164B9B6803F4E053AC
:104BE000BB61BB699B0ABB61154ABB6913441B7857
:104BF000DBB27B617B685A687B69DA407B689A60CC
:104C00000C4B9B6803F46043BB61BB695B0BBB61EE
:104C10000B4ABB6913441B78DBB27B617B685A6823
:104C20007B69DA407B68DA6000BF2437BD465DF8F7
:104C3000047B7047003802400024F40000127A0020
:104C4000E009002080B483B000AF78600B46FB70B1
:104C5000FB78002B06D00A49094B1A6B7B6813437B
:104C60000B6306E00649064B1A6B7B68DB43134077
:104C70000B6300BF0C37BD465DF8047B704700BF77
:104C80000038024080B483B000AF78600B46FB7000
:104C9000FB78002B06D00A49094B1A6C7B6813433A
:104CA0000B6406E00649064B1A6C7B68DB43134035
:104CB0000B6400BF0C37BD465DF8047B704700BF36
:104CC0000038024080B483B000AF78600B46FB70C0
:104CD000FB78002B06D00A49094B5A6C7B681343BA
:104CE0004B6406E00649064B5A6C7B68DB43134075
:104CF0004B6400BF0C37BD465DF8047B704700BFB6
:104D00000038024080B483B000AF78600B46FB707F
:104D1000FB78002B06D00A49094B1A6A7B681343BB
:104D20000B6206E00649064B1A6A7B68DB431340B8
:104D30000B6200BF0C37BD465DF8047B704700BFB7
:104D40000038024080B483B000AF78600B46FB703F
:104D5000FB78002B06D00A49094B5A6A7B6813433B
:104D60004B6206E00649064B5A6A7B68DB431340F8
:104D70004B6200BF0C37BD465DF8047B704700BF37
:104D80000038024080B487B000AF0346FB710023B7
:104D9000FB6000237B610023FB74FB795B09DBB2C2
:104DA000FB60FB68012B03D1124B1B687B6109E0A0
:104DB000FB68022B03D10F4B1B6F7B6102E00D4B95
:104DC0005B6F7B61FB7903F01F03FB607A69FB6813
:104DD00022FA03F303F00103002B02D00123FB743A
:104DE00001E00023FB74FB7C18461C37BD465DF8D0
:104DF000047B70470038024080B400AF054A054B81
:104E00005B6F43F08073536700BFBD465DF8047B62
:104E1000704700BF0038024080B582B000AF7860B4
:104E200001214FF48020FFF72DFF01210820FFF71B
:104E300009FF284B4FF440721A60264B02221A7168
:104E4000244B02225A71234B00229A71214B0122DA
:104E5000DA71204920480BF04FF8072208211E483C
:104E60000BF012F9072209211B480BF00DF91B4A20
:104E70007B681360194B00229A80184B0022DA805D
:104E8000164B00221A81154B00229A81134B0C22DB
:104E90005A8112491248FCF727FD012240F22551A0
:104EA0000F48FCF70DFE0F4B27221A700D4B002206
:104EB0005A700C4B02229A700A4B0122DA70094890
:104EC00040F018FE01210648FCF7C8FD00BF083776
:104ED000BD4680BDD8330020000C0240F8330020CE
:104EE000004800402438002080B582B000AF40F276
:104EF00025516448FCF75AFE0346002B00F0BD80A4
:104F0000604B9B889BB2FB715F4B1B68013B092B7D
:104F100000F2908001A252F823F000BF454F000834
:104F20005D4F0008754F00088D4F0008A54F000821
:104F3000BD4F0008D54F0008ED4F00080550000890
:104F40001D5000084F4B9B889BB21A464F4B9A60EE
:104F50004D4B1B6801334C4A13606BE0494B9B88F7
:104F60009BB21A46494B1A62474B1B680133464AAB
:104F700013605FE0434B9B889BB21A46434B1A6118
:104F8000414B1B680133404A136053E03D4B9B8803
:104F90009BB21A463D4BDA603B4B1B6801333A4AE1
:104FA000136047E0374B9B889BB21A46374BDA6158
:104FB000354B1B680133344A13603BE0314B9B880F
:104FC0009BB21A46314B9A612F4B1B6801332E4A14
:104FD00013602FE02B4B9B889BB21A462B4B5A60D9
:104FE000294B1B680133284A136023E0254B9B881B
:104FF0009BB21A46254B1A60234B1B680133224A89
:10500000136017E01F4B9B889BB21A46204B1A6017
:105010001D4B1B6801331C4A13600BE0194B9B8826
:105020009BB21A461A4B5A60174B1B683F33164AFD
:10503000136000BFFA79174B1B689A4209D1164BCF
:105040001B781A46154B1B689A4202D10E4B01225F
:105050001A60114AFB7913700D4B1B681A020C4B36
:105060005B6813430E4A13600D4B1B680D4AA2FB8D
:105070000323DB080A3B0A4A136000BF0837BD461A
:1050800080BD00BF00480040FC140020D414002064
:10509000C417002074000020781C0020700000203D
:1050A000C0170020CDCCCCCCB0B500AF40F010FD87
:1050B0000021002040F0FAFC484A494B15461C46A6
:1050C0000FCC28606960AA60EB6023782B7443489A
:1050D00040F0D8FC0121002040F0E8FC414B9B68E7
:1050E0001A4641493D4846F0C1FA3C4840F0CAFCE6
:1050F0000221002040F0DAFC3A4B1B691A463B497A
:10510000364846F0B3FA354840F0BCFC0321002095
:1051100040F0CCFC334BDB681A4635492F4846F04B
:10512000A5FA2E4840F0AEFC0121062040F0BEFC5E
:105130002C4B1B6A1A462F49284846F097FA2748F5
:1051400040F0A0FC0221062040F0B0FC254B9B69FA
:105150001A462949214846F089FA204840F092FC35
:105160000321062040F0A2FC1E4BDB691A462349AE
:105170001A4846F07BFA194840F084FC01210B20C4
:1051800040F094FC1E4B1B681A461E49134846F01B
:105190006DFA124840F076FC02210B2040F086FCAC
:1051A000194B9B691A4619490C4846F05FFA0B489F
:1051B00040F068FC03210B2040F078FC124BDB68C8
:1051C0001A461349054846F051FA044840F05AFC83
:1051D00032200BF037F900BFB0BD00BFB41D002076
:1051E000B8FE0408D4140020CCFE0408D4FE040841
:1051F000DCFE0408E4FE0408ECFE0408F4FE0408E7
:1052000018150020FCFE0408C437002004FF040821
:105210000CFF040890B583B000AF17E19D4B1B68ED
:105220007B6020219C480AF0F5FE0346012B00F02C
:105230001681402198480AF0EDFE0346012B0CD15F
:1052400000BF402194480AF0E5FE0346012BF8D048
:10525000904B1B68013B8F4A136010218E480AF067
:10526000D9FE0346012B0CD100BF10218A480AF059
:10527000D1FE0346012BF8D0864B1B680133854ACB
:105280001360202184480AF0C5FE0346012B00F07C
:10529000E880804B1B68012B42D0022B7DD0002B75
:1052A00040F0B8800021022040F000FC7B4A7C4B9B
:1052B00003CB1060516019889B78118193727748F5
:1052C00040F0E0FB0121042040F0F0FB734A754BF5
:1052D00003CB106051601B881381704840F0D2FBF3
:1052E0000221052040F0E2FB6C4B6F4A1068186009
:1052F0009188927999809A71684840F0C3FB0321A4
:10530000022040F0D3FB654A684B144607CB20606F
:105310006160A2601B782373604840F0B3FB79E0C2
:105320000021022040F0C2FB5C4A5D4B03CB1060C1
:10533000516019889B7811819372584840F0A2FB04
:105340000121042040F0B2FB544A564B03CB1060BD
:1053500051601B881381514840F094FB02210320C7
:1053600040F0A4FB4D4A524B03CB106051601B88A8
:1053700013814A4840F086FB0321022040F096FB4F
:10538000464A4A4B144607CB20606160A2601B78F6
:105390002373424840F076FB3CE00021022040F0BD
:1053A00085FB3E4A3E4B03CB1060516019889B78C9
:1053B00011819372394840F065FB0121042040F0CF
:1053C00075FB364A374B03CB106051601B88138145
:1053D000324840F057FB0221042040F067FB2F4A7F
:1053E000344B03CB106051601B7813722B4840F094
:1053F00049FB0321022040F059FB284A2B4B14465D
:1054000007CB20606160A2601B782373234840F0C3
:1054100039FB00BF1F4B1A687B689A4201D040F0ED
:1054200057FB1C4B1B68022B02DD1A4B00221A6033
:10543000184B1B68002B02DA164B02221A6020213F
:1054400015480AF0E7FD0346012B0CD02021124835
:105450000AF0E0FD0346002B3FF4E0AE04E000BF9D
:1054600002E000BF00E000BF64200AF0EBFF094B40
:105470001B68012B06D0022B07D0002B08D100F0AF
:105480001BF805E000F0CCFC02E001F00FF900BFD2
:10549000EDE700BF6C1C002000100240B41D00208E
:1054A0004CFF040858FF040864FF04086CFF04085C
:1054B0007CFF040888FF0408B0B582B000AFAD4B94
:1054C00000221A608EE301214FF4967013F084FBE2
:1054D000A84B1B687B602021A7480AF09BFD034670
:1054E000012B00F088834021A3480AF093FD034676
:1054F000012B0CD100BF40219F480AF08BFD0346D1
:10550000012BF8D09B4B1B68013B9A4A136010217A
:1055100099480AF07FFD0346012B0CD100BF1021F2
:1055200095480AF077FD0346012BF8D0914B1B6894
:105530000133904A136020218F480AF06BFD034627
:10554000012B00F05A838B4B1B680B2B00F22E8330
:1055500001A252F823F000BF895500080756000841
:1055600081560008FB5600089D5700081B5800088C
:1055700099580008135900088D5900080F5A00085F
:10558000B15A00082B5B00080021022040F08EFA7F
:105590007A4A7B4B03CB1060516019889B7811814C
:1055A0009372764840F06EFA0121042040F07EFAB2
:1055B000724A744B03CB106051601B8813816F4893
:1055C00040F060FA0221002040F070FA6B4A6E4B06
:1055D000144607CB20606160A2601B782373674884
:1055E00040F050FA0321022040F060FA634A674B12
:1055F000144607CB20606160A2601B7823735F486C
:1056000040F040FAD2E20021022040F04FFA5B4A1B
:105610005B4B03CB1060516019889B7811819372AA
:10562000564840F02FFA0121042040F03FFA534A37
:10563000544B03CB106051601B8813814F4840F0DE
:1056400021FA0221002040F031FA4C4A504B144616
:1056500007CB20606160A260484840F013FA032144
:10566000022040F023FA454A484B144607CB2060FD
:105670006160A2601B782373404840F003FA95E212
:105680000021022040F012FA3C4A3D4B03CB10604F
:10569000516019889B7811819372384840F0F2F973
:1056A0000121042040F002FA344A364B03CB10604B
:1056B00051601B881381314840F0E4F90221002039
:1056C00040F0F4F92D4A334B144607CB206061605B
:1056D000A2602A4840F0D6F90321022040F0E6F902
:1056E000264A2A4B144607CB20606160A2601B78D3
:1056F0002373224840F0C6F958E20021022040F00E
:10570000D5F91E4A1E4B03CB1060516019889B7857
:1057100011819372194840F0B5F90121042040F03D
:10572000C5F9164A174B03CB106051601B881381D3
:10573000124840F0A7F90221002040F0B7F90F4AC3
:10574000154B144607CB20606160A2600B4840F007
:1057500099F90321022040F0A9F9084A0B4B14469D
:1057600007CB20606160A2601B782373034840F080
:1057700089F91BE26C1C002000100240B41D0020BF
:105780004CFF040858FF040894FF04086CFF040849
:10579000A4FF0408B0FF0408BCFF04080021022095
:1057A00040F084F9B84AB94B03CB106051601988B6
:1057B0009B7811819372B44840F064F90121042070
:1057C00040F074F9B04AB24B03CB106051601B88B3
:1057D0001381AD4840F056F90221002040F066F9EF
:1057E000A94AAC4B03CB1060516019889B7811819A
:1057F0009372A54840F046F90321022040F056F983
:10580000A14AA54B144607CB20606160A2601B78BB
:1058100023739D4840F036F9C8E10021022040F092
:1058200045F9994A994B03CB1060516019889B78D0
:1058300011819372944840F025F90121042040F031
:1058400035F9914A924B03CB106051601B8813814C
:105850008D4840F017F90221002040F027F98A4ACC
:105860008E4B144607CB20606160A2601B782373C7
:10587000854840F007F90321022040F017F9824AD9
:10588000854B144607CB20606160A2601B782373B0
:105890007D4840F0F7F889E10021022040F006F948
:1058A000794A7A4B03CB1060516019889B7811813B
:1058B0009372754840F0E6F80121042040F0F6F8B4
:1058C000714A734B03CB106051601B8813816E4883
:1058D00040F0D8F80221002040F0E8F86A4A704B06
:1058E000144607CB20606160A260674840F0CAF8A8
:1058F0000321022040F0DAF8634A674B144607CBD5
:1059000020606160A2601B7823735F4840F0BAF8A2
:105910004CE10021022040F0C9F85B4A5B4B03CB0D
:105920001060516019889B7811819372564840F03D
:10593000A9F80121042040F0B9F8534A544B03CB95
:10594000106051601B8813814F4840F09BF8022182
:10595000002040F0ABF84C4A524B03CB1060516032
:105960001B881381484840F08DF80321022040F045
:105970009DF8454A484B144607CB20606160A26001
:105980001B782373404840F07DF80FE1002102208E
:1059900040F08CF83C4A3D4B03CB106051601988B5
:1059A0009B7811819372384840F06CF801210420F3
:1059B00040F07CF8344A364B03CB106051601B88B2
:1059C0001381314840F05EF80221002040F06EF86B
:1059D0002D4A354B15461C460FCC28606960AA60DD
:1059E000EB6023782B74284840F04CF80321022008
:1059F00040F05CF8244A284B144607CB20606160D5
:105A0000A2601B782373204840F03CF8CEE00021D0
:105A1000022040F04BF81C4A1C4B03CB1060516035
:105A200019889B7811819372174840F02BF8012157
:105A3000042040F03BF8144A154B03CB1060516032
:105A40001B881381104840F01DF80221002040F00F
:105A50002DF80D4A154B03CB106051601B88138144
:105A6000094840F00FF80321022040F01FF8064AD1
:105A7000094B144607CB20606160A2601B7823733A
:105A800001483FF0FFFF91E0B41D00204CFF0408E7
:105A900058FF0408C8FF04086CFF0408D4FF04087A
:105AA000E4FF0408F0FF0408FCFF040810000508E8
:105AB000002102203FF0FAFFBE4ABF4B03CB10602B
:105AC000516019889B7811819372BA483FF0DAFFD0
:105AD000012104203FF0EAFFB64AB84B03CB106027
